:100000000C9435010C9466010C9466010C94660105
:100010000C9466010C9466010C9466010C946601C4
:100020000C9466010C9466010C9466010C946601B4
:100030000C9466010C9466010C9466010C946601A4
:100040000C9466010C9466010C9466010C94660194
:100050000C9466010C9466010C9466010C941203D6
:100060000C9466010C9486030C945C030C9466015A
:100070000C9466010C9466010C9466010C94660164
:100080000C9466010C9466010C9466010C94660154
:100090000C9466010C9466010C9466010C94660144
:1000A0000C9466010C9466010C9466010C94660134
:1000B0000C9466010C9466010C9466010C94660124
:1000C0000C9466010C9466010C9466010C94660114
:1000D0000C9466010C9466010C9466010C94660104
:1000E0000C9466010C94EB010C9465050C948D0145
:1000F0000C9445050C9470020C9423020C94410559
:100100000C94C9010C9437050C9453050C945705B5
:100110000C9461050C9400050C944F050C94050596
:100120000C9431050C942E050C942A050C945D0555
:100130000C9422050C943B050C9426050C9449055F
:100140000C94BA010C94DD01000022002500280067
:100150002B002E00310034000201000005010801CF
:100160000B0100002100240027002A002D00300090
:10017000330001010000040107010A010000200012
:100180002300260029002C002F003200000100006F
:10019000030106010901050505050705080808080A
:1001A000020202020A0A080804040404010101010F
:1001B000010101010303030303030303040707070A
:1001C0000C0C0C0C0C0C0C0C0202020206060606AF
:1001D000060606060B0B0B0B0B0B0B0B010210207C
:1001E000200808102040102040800201020108046D
:1001F0000201010204081020408080402010080401
:100200000201800402018040201008040201080459
:10021000020101020408102040800102040810209D
:10022000408000000A0B02090C0D0E0807030401B0
:1002300000000000000000000000000000000000BE
:10024000000000000000000000000000000012118B
:10025000100000000000000000000000000000008E
:100260000000000000000000650511241FBECFEF54
:10027000D1E2DEBFCDBF00E00CBF12E0A0E0B2E0F3
:10028000ECE7FBE000E00BBF02C007900D92A0344A
:10029000B107D9F722E0A0E4B2E001C01D92A63E6A
:1002A000B207E1F711E0C5E3D1E000E006C0219715
:1002B0000109802FFE010E94B405C433D10780E0FC
:1002C0000807A9F70E94BC030C94BC050C9400001D
:1002D0003FB7F8948091450290914602A091470261
:1002E000B091480226B5A89B05C02F3F19F0019692
:1002F000A11DB11D3FBFBA2FA92F982F8827BC0180
:10030000CD01620F711D811D911D42E0660F771FA7
:10031000881F991F4A95D1F70895AF92BF92CF9247
:10032000DF92EF92FF920F931F93CF93DF936C01B5
:100330007B018B01040F151FEB015E01AE18BF0896
:10034000C017D10759F06991D601ED91FC91019048
:10035000F081E02DC6011995892B79F7C501DF9150
:10036000CF911F910F91FF90EF90DF90CF90BF90B2
:10037000AF900895FC01538D448D252F30E0842FDC
:1003800090E0821B930B541710F0CF9608950197BD
:100390000895FC01918D828D981761F0A28DAE0FAA
:1003A000BF2FB11D5D968C91928D9F5F9F73928F31
:1003B00090E008958FEF9FEF0895FC01918D828D5D
:1003C000981731F0828DE80FF11D858D90E008952A
:1003D0008FEF9FEF0895FC01918D228D892F90E082
:1003E000805C9F4F821B91098F739927089589E440
:1003F00092E00E94EB0121E0892B09F420E0822F9A
:100400000895FC01A48DA80FB92FB11DA35ABF4FA9
:100410002C91848D90E001968F739927848FA68903
:10042000B7892C93A089B1898C91837080648C9357
:10043000938D848D981306C00288F389E02D808106
:100440008F7D80830895EF92FF920F931F93CF9338
:10045000DF93EC0181E0888F9B8D8C8D98131AC0FF
:10046000E889F989808185FF15C09FB7F894EE89E6
:10047000FF896083E889F989808183708064808343
:100480009FBF81E090E0DF91CF911F910F91FF908E
:10049000EF900895F62E0B8D10E00F5F1F4F0F7336
:1004A0001127E02E8C8D8E110CC00FB607FCFACFF1
:1004B000E889F989808185FFF5CFCE010E9401028C
:1004C000F1CFEB8DEC0FFD2FF11DE35AFF4FF082C2
:1004D0009FB7F8940B8FEA89FB8980818062CFCF28
:1004E000CF93DF93EC01888D8823B9F0AA89BB896B
:1004F000E889F9898C9185FD03C0808186FD0DC056
:100500000FB607FCF7CF8C9185FFF2CF808185FF76
:10051000EDCFCE010E940102E9CFDF91CF91089586
:1005200080E090E0892B29F00E94F70181110E9460
:10053000000080E090E0892B49F080E090E0892B7A
:1005400029F00E94000081110E94000080E090E0EC
:10055000892B49F080E090E0892B29F00E9400006F
:1005600081110E94000080E090E0892B49F080E03A
:1005700090E0892B29F00E94000081110C9400006A
:100580000895FC0101900020E9F73197AF01481B65
:10059000590BBC0189E492E00C948D018F929F92DB
:1005A000AF92BF920F931F93CF93DF93CDB7DEB778
:1005B000A1970FB6F894DEBF0FBECDBF19A242308F
:1005C00008F44AE08E010F5D1F4F842E912CB12C50
:1005D000A12CA50194010E949205E62FB901CA0140
:1005E000EA30F4F4E05DD801EE938D01232B242B47
:1005F000252B79F790E080E0109719F0CD010E944B
:10060000C102A1960FB6F894DEBF0FBECDBFDF9139
:10061000CF911F910F91BF90AF909F908F900895B1
:10062000E95CE1CF1F920F920FB60F9211242F9326
:100630003F938F939F93AF93BF938091410290918B
:100640004202A0914302B09144023091400223E063
:10065000230F2D3758F50196A11DB11D209340029F
:100660008093410290934202A0934302B0934402CC
:100670008091450290914602A0914702B0914802B4
:100680000196A11DB11D8093450290934602A0934F
:100690004702B0934802BF91AF919F918F913F91D4
:1006A0002F910F900FBE0F901F90189526E8230FE3
:1006B0000296A11DB11DD2CF1F920F920FB60F92BD
:1006C00011240BB60F922F933F934F935F936F9329
:1006D0007F938F939F93AF93BF93EF93FF9389E49F
:1006E00092E00E940102FF91EF91BF91AF919F9123
:1006F0008F917F916F915F914F913F912F910F90CB
:100700000BBE0F900FBE0F901F9018951F920F9267
:100710000FB60F9211240BB60F922F938F939F93C6
:10072000EF93FF93E0915902F0915A028081E0919A
:100730005F02F091600282FD1DC090818091620293
:100740008F5F8F7320916302821741F0E091620204
:10075000F0E0E75BFD4F958F80936202FF91EF9190
:100760009F918F912F910F900BBE0F900FBE0F9006
:100770001F9018958081F2CF789484B5826084BDF3
:1007800084B5816084BD85B5826085BD85B5816095
:1007900085BD80916E00816080936E001092810013
:1007A00080918100826080938100809181008160CE
:1007B000809381008091800081608093800080918F
:1007C000B10084608093B1008091B000816080931B
:1007D000B00080919100826080939100809191009F
:1007E000816080939100809190008160809390005F
:1007F0008091A10082608093A1008091A10081601E
:100800008093A1008091A00081608093A0008091DE
:100810002101826080932101809121018160809378
:1008200021018091200181608093200180917A00D4
:10083000846080937A0080917A00826080937A004D
:1008400080917A00816080937A0080917A0080683C
:1008500080937A001092C100E0915902F0915A02FF
:1008600082E08083E0915502F09156021082E0917F
:100870005702F091580280E1808310926102E0916A
:100880005D02F0915E0286E08083E0915B02F09170
:100890005C02808180618083E0915B02F0915C0268
:1008A000808188608083E0915B02F0915C028081AE
:1008B00080688083E0915B02F0915C0280818F7D93
:1008C000808382E192E00E94C1028FE292E00E9466
:1008D000C102C2EFD1E0FE0124910CEA11E0F8015F
:1008E00084918823C9F090E0880F991FFC01EE598C
:1008F000FE4FA591B491FC01E85BFE4F45915491E8
:100900003FB7F8949C91822F809598239C93FA018D
:100910009081892380833FBFE3EFF1E02491EDEAEA
:10092000F1E08491882399F090E0880F991FFC01F1
:10093000EE59FE4FA591B491FC01E85BFE4F859105
:1009400094918FB7F894EC91E22BEC938FBF82E3F4
:1009500092E00E94C1028FE292E00E94C1020E94D6
:1009600068014B015C0128EBC22E2BE0D22EE12C5A
:10097000F12C0E946801681979098A099B09683E6F
:10098000734081059105A8F3F1E0CF1AD108E10881
:10099000F10828EE820E23E0921EA11CB11CC114A6
:1009A000D104E104F10429F798E3E92E92E0F92E4D
:1009B000F7018491FE012491F8019491992309F49F
:1009C00034C0882311F181508231F8F4E82FF0E02F
:1009D0008827E251FB4F8F4F0C94B4052A052E0552
:1009E0000005220526050505310537053B054105AE
:1009F000450549054F055305050557055D05610585
:100A0000809180008F7780938000E92FF0E0EE0FD7
:100A1000FF1FE458FE4FA591B4918C9128234AE022
:100A200061E070E080E090E021F44AE060E070E096
:100A3000CB010E94CE028FE292E00E94C1020E948E
:100A40009002B6CF809180008F7DDDCF80918000B5
:100A5000877FD9CF84B58F7784BDD7CF84B58F7D7D
:100A6000FBCF8091B0008F778093B000CECF809184
:100A7000B0008F7DF9CF809190008F7780939000A8
:100A8000C4CF809190008F7DF9CF80919000877FB7
:100A9000F5CF8091A0008F778093A000B6CF809192
:100AA000A0008F7DF9CF8091A000877FF5CF809146
:100AB00020018F7780932001A8CF809120018F7D26
:100AC000F9CF80912001877FF5CFE9E4F2E013822E
:100AD000128288EE93E0A0E0B0E084839583A68341
:100AE000B78384E092E09183808385EC90E09587E2
:100AF000848784EC90E09787868780EC90E0918BE8
:100B0000808B81EC90E0938B828B82EC90E0958BD4
:100B1000848B86EC90E0978B868B118E128E138ED1
:100B2000148E0895A1E21A2EAA1BBB1BFD010DC055
:100B3000AA1FBB1FEE1FFF1FA217B307E407F5078D
:100B400020F0A21BB30BE40BF50B661F771F881F69
:100B5000991F1A9469F760957095809590959B01FF
:100B6000AC01BD01CF010895EE0FFF1F881F8BBFA1
:0C0B70000790F691E02D1994F894FFCF47
:100B7C000000000023028D01BA017002EB01C901D3
:100B8C00DD01436C6F636B2050756C73652044659D
:100B9C0074656374696F6E20546573742E0A000D4E
:100BAC000A00526573657474696E672E2E2E0000F0
:00000001FF
